{
  "_format": "hh-sol-artifact-1",
  "contractName": "BuyMeCoffee",
  "sourceName": "contracts/BuyMeCoffee.sol",
  "abi": [
    {
      "inputs": [],
      "stateMutability": "nonpayable",
      "type": "constructor"
    },
    {
      "anonymous": false,
      "inputs": [
        {
          "indexed": true,
          "internalType": "uint256",
          "name": "userId",
          "type": "uint256"
        },
        {
          "indexed": false,
          "internalType": "string",
          "name": "_name",
          "type": "string"
        },
        {
          "indexed": false,
          "internalType": "string",
          "name": "_description",
          "type": "string"
        },
        {
          "indexed": false,
          "internalType": "string",
          "name": "ulrImg",
          "type": "string"
        },
        {
          "indexed": false,
          "internalType": "address payable",
          "name": "wallet",
          "type": "address"
        }
      ],
      "name": "ClientCreated",
      "type": "event"
    },
    {
      "anonymous": false,
      "inputs": [
        {
          "indexed": true,
          "internalType": "uint256",
          "name": "userId",
          "type": "uint256"
        },
        {
          "indexed": false,
          "internalType": "uint256",
          "name": "amountDonated",
          "type": "uint256"
        }
      ],
      "name": "CoffeesTipped",
      "type": "event"
    },
    {
      "inputs": [],
      "name": "AmountTotal",
      "outputs": [
        {
          "internalType": "uint256",
          "name": "",
          "type": "uint256"
        }
      ],
      "stateMutability": "view",
      "type": "function"
    },
    {
      "inputs": [],
      "name": "ClientCount",
      "outputs": [
        {
          "internalType": "uint256",
          "name": "",
          "type": "uint256"
        }
      ],
      "stateMutability": "view",
      "type": "function"
    },
    {
      "inputs": [
        {
          "internalType": "uint256",
          "name": "",
          "type": "uint256"
        }
      ],
      "name": "Coffees",
      "outputs": [
        {
          "internalType": "uint256",
          "name": "id",
          "type": "uint256"
        },
        {
          "internalType": "string",
          "name": "name",
          "type": "string"
        },
        {
          "internalType": "string",
          "name": "description",
          "type": "string"
        },
        {
          "internalType": "string",
          "name": "ulrImg",
          "type": "string"
        },
        {
          "internalType": "uint256",
          "name": "tipAmount",
          "type": "uint256"
        },
        {
          "internalType": "address payable",
          "name": "wallet",
          "type": "address"
        }
      ],
      "stateMutability": "view",
      "type": "function"
    },
    {
      "inputs": [
        {
          "internalType": "string",
          "name": "_name",
          "type": "string"
        },
        {
          "internalType": "string",
          "name": "_description",
          "type": "string"
        },
        {
          "internalType": "string",
          "name": "_ulrImg",
          "type": "string"
        },
        {
          "internalType": "address payable",
          "name": "wallet",
          "type": "address"
        }
      ],
      "name": "CreateUser",
      "outputs": [],
      "stateMutability": "nonpayable",
      "type": "function"
    },
    {
      "inputs": [
        {
          "internalType": "string",
          "name": "_name",
          "type": "string"
        },
        {
          "internalType": "string",
          "name": "_description",
          "type": "string"
        },
        {
          "internalType": "string",
          "name": "_ulrImg",
          "type": "string"
        },
        {
          "internalType": "address payable",
          "name": "wallet",
          "type": "address"
        },
        {
          "internalType": "uint256",
          "name": "_id",
          "type": "uint256"
        }
      ],
      "name": "EditUser",
      "outputs": [],
      "stateMutability": "nonpayable",
      "type": "function"
    },
    {
      "inputs": [
        {
          "internalType": "address",
          "name": "",
          "type": "address"
        }
      ],
      "name": "TotalDonatedUser",
      "outputs": [
        {
          "internalType": "uint256",
          "name": "",
          "type": "uint256"
        }
      ],
      "stateMutability": "view",
      "type": "function"
    },
    {
      "inputs": [],
      "name": "getCoffeesList",
      "outputs": [
        {
          "components": [
            {
              "internalType": "uint256",
              "name": "id",
              "type": "uint256"
            },
            {
              "internalType": "string",
              "name": "name",
              "type": "string"
            },
            {
              "internalType": "string",
              "name": "description",
              "type": "string"
            },
            {
              "internalType": "string",
              "name": "ulrImg",
              "type": "string"
            },
            {
              "internalType": "uint256",
              "name": "tipAmount",
              "type": "uint256"
            },
            {
              "internalType": "address payable",
              "name": "wallet",
              "type": "address"
            }
          ],
          "internalType": "struct BuyMeCoffee.Client[]",
          "name": "",
          "type": "tuple[]"
        }
      ],
      "stateMutability": "view",
      "type": "function"
    },
    {
      "inputs": [],
      "name": "owner",
      "outputs": [
        {
          "internalType": "address",
          "name": "",
          "type": "address"
        }
      ],
      "stateMutability": "view",
      "type": "function"
    },
    {
      "inputs": [
        {
          "internalType": "uint256",
          "name": "_id",
          "type": "uint256"
        }
      ],
      "name": "tipCoffee",
      "outputs": [],
      "stateMutability": "payable",
      "type": "function"
    },
    {
      "inputs": [
        {
          "internalType": "address",
          "name": "newOwner",
          "type": "address"
        }
      ],
      "name": "transferOwnership",
      "outputs": [],
      "stateMutability": "nonpayable",
      "type": "function"
    }
  ],
  "bytecode": "0x60806040526000600155600060025534801561001a57600080fd5b50336000806101000a81548173ffffffffffffffffffffffffffffffffffffffff021916908373ffffffffffffffffffffffffffffffffffffffff1602179055506120818061006a6000396000f3fe6080604052600436106100915760003560e01c8063a05932e911610059578063a05932e91461015a578063a53d69a514610185578063aca9e766146101c7578063caf5941e14610204578063f2fde38b1461022f57610091565b80635a2f03dc146100965780637fe11319146100bf5780638da5cb5b146100ea5780639512ee3f146101155780639ebeb4c11461013e575b600080fd5b3480156100a257600080fd5b506100bd60048036038101906100b891906115cd565b610258565b005b3480156100cb57600080fd5b506100d46105be565b6040516100e1919061189b565b60405180910390f35b3480156100f657600080fd5b506100ff61083d565b60405161010c91906118de565b60405180910390f35b34801561012157600080fd5b5061013c600480360381019061013791906118f9565b610861565b005b610158600480360381019061015391906119b4565b610b84565b005b34801561016657600080fd5b5061016f610f15565b60405161017c91906119f0565b60405180910390f35b34801561019157600080fd5b506101ac60048036038101906101a791906119b4565b610f1b565b6040516101be96959493929190611a64565b60405180910390f35b3480156101d357600080fd5b506101ee60048036038101906101e99190611b06565b61111f565b6040516101fb91906119f0565b60405180910390f35b34801561021057600080fd5b50610219611137565b60405161022691906119f0565b60405180910390f35b34801561023b57600080fd5b5061025660048036038101906102519190611b06565b61113d565b005b80600154811061029d576040517f08c379a000000000000000000000000000000000000000000000000000000000815260040161029490611b7f565b60405180910390fd5b60008054906101000a900473ffffffffffffffffffffffffffffffffffffffff1673ffffffffffffffffffffffffffffffffffffffff163373ffffffffffffffffffffffffffffffffffffffff161461032b576040517f08c379a000000000000000000000000000000000000000000000000000000000815260040161032290611beb565b60405180910390fd5b8585856000835111610372576040517f08c379a000000000000000000000000000000000000000000000000000000000815260040161036990611c57565b60405180910390fd5b60008251116103b6576040517f08c379a00000000000000000000000000000000000000000000000000000000081526004016103ad90611cc3565b60405180910390fd5b60008151116103fa576040517f08c379a00000000000000000000000000000000000000000000000000000000081526004016103f190611d2f565b60405180910390fd5b600073ffffffffffffffffffffffffffffffffffffffff168673ffffffffffffffffffffffffffffffffffffffff16141561043457600080fd5b6040518060c001604052808681526020018a81526020018981526020018881526020016003878154811061046b5761046a611d4f565b5b90600052602060002090600602016004015481526020018773ffffffffffffffffffffffffffffffffffffffff16815250600386815481106104b0576104af611d4f565b5b90600052602060002090600602016000820151816000015560208201518160010190805190602001906104e492919061133c565b50604082015181600201908051906020019061050192919061133c565b50606082015181600301908051906020019061051e92919061133c565b506080820151816004015560a08201518160050160006101000a81548173ffffffffffffffffffffffffffffffffffffffff021916908373ffffffffffffffffffffffffffffffffffffffff1602179055509050506001547f7d6b0c49275388b04548b8676fe88c45ab5fe46efc5f88d5892b8773dc4f901a8a8a8a8a6040516105ab9493929190611d7e565b60405180910390a2505050505050505050565b60606003805480602002602001604051908101604052809291908181526020016000905b8282101561083457838290600052602060002090600602016040518060c00160405290816000820154815260200160018201805461061f90611e07565b80601f016020809104026020016040519081016040528092919081815260200182805461064b90611e07565b80156106985780601f1061066d57610100808354040283529160200191610698565b820191906000526020600020905b81548152906001019060200180831161067b57829003601f168201915b505050505081526020016002820180546106b190611e07565b80601f01602080910402602001604051908101604052809291908181526020018280546106dd90611e07565b801561072a5780601f106106ff5761010080835404028352916020019161072a565b820191906000526020600020905b81548152906001019060200180831161070d57829003601f168201915b5050505050815260200160038201805461074390611e07565b80601f016020809104026020016040519081016040528092919081815260200182805461076f90611e07565b80156107bc5780601f10610791576101008083540402835291602001916107bc565b820191906000526020600020905b81548152906001019060200180831161079f57829003601f168201915b50505050508152602001600482015481526020016005820160009054906101000a900473ffffffffffffffffffffffffffffffffffffffff1673ffffffffffffffffffffffffffffffffffffffff1673ffffffffffffffffffffffffffffffffffffffff1681525050815260200190600101906105e2565b50505050905090565b60008054906101000a900473ffffffffffffffffffffffffffffffffffffffff1681565b60008054906101000a900473ffffffffffffffffffffffffffffffffffffffff1673ffffffffffffffffffffffffffffffffffffffff163373ffffffffffffffffffffffffffffffffffffffff16146108ef576040517f08c379a00000000000000000000000000000000000000000000000000000000081526004016108e690611beb565b60405180910390fd5b8383836000835111610936576040517f08c379a000000000000000000000000000000000000000000000000000000000815260040161092d90611c57565b60405180910390fd5b600082511161097a576040517f08c379a000000000000000000000000000000000000000000000000000000000815260040161097190611cc3565b60405180910390fd5b60008151116109be576040517f08c379a00000000000000000000000000000000000000000000000000000000081526004016109b590611d2f565b60405180910390fd5b600073ffffffffffffffffffffffffffffffffffffffff168473ffffffffffffffffffffffffffffffffffffffff1614156109f857600080fd5b60006040518060c001604052806001548152602001898152602001888152602001878152602001600081526020018673ffffffffffffffffffffffffffffffffffffffff1681525090506003819080600181540180825580915050600190039060005260206000209060060201600090919091909150600082015181600001556020820151816001019080519060200190610a9492919061133c565b506040820151816002019080519060200190610ab192919061133c565b506060820151816003019080519060200190610ace92919061133c565b506080820151816004015560a08201518160050160006101000a81548173ffffffffffffffffffffffffffffffffffffffff021916908373ffffffffffffffffffffffffffffffffffffffff160217905550505060016000815480929190610b3590611e68565b91905055506001547f7d6b0c49275388b04548b8676fe88c45ab5fe46efc5f88d5892b8773dc4f901a89898989604051610b729493929190611d7e565b60405180910390a25050505050505050565b806001548110610bc9576040517f08c379a0000000000000000000000000000000000000000000000000000000008152600401610bc090611b7f565b60405180910390fd5b600060038381548110610bdf57610bde611d4f565b5b90600052602060002090600602016040518060c001604052908160008201548152602001600182018054610c1290611e07565b80601f0160208091040260200160405190810160405280929190818152602001828054610c3e90611e07565b8015610c8b5780601f10610c6057610100808354040283529160200191610c8b565b820191906000526020600020905b815481529060010190602001808311610c6e57829003601f168201915b50505050508152602001600282018054610ca490611e07565b80601f0160208091040260200160405190810160405280929190818152602001828054610cd090611e07565b8015610d1d5780601f10610cf257610100808354040283529160200191610d1d565b820191906000526020600020905b815481529060010190602001808311610d0057829003601f168201915b50505050508152602001600382018054610d3690611e07565b80601f0160208091040260200160405190810160405280929190818152602001828054610d6290611e07565b8015610daf5780601f10610d8457610100808354040283529160200191610daf565b820191906000526020600020905b815481529060010190602001808311610d9257829003601f168201915b50505050508152602001600482015481526020016005820160009054906101000a900473ffffffffffffffffffffffffffffffffffffffff1673ffffffffffffffffffffffffffffffffffffffff1673ffffffffffffffffffffffffffffffffffffffff1681525050905060008160a0015190503460038581548110610e3857610e37611d4f565b5b90600052602060002090600602016004016000828254610e589190611eb1565b9250508190555034600254610e6d9190611eb1565b60028190555034600460008373ffffffffffffffffffffffffffffffffffffffff1673ffffffffffffffffffffffffffffffffffffffff1681526020019081526020016000206000828254610ec29190611eb1565b92505081905550610ed3813461127e565b837f1b864f3434f022c0a5839429b4102075826e2b6e2aadece88ba243f513f2008a8360800151604051610f0791906119f0565b60405180910390a250505050565b60015481565b60038181548110610f2b57600080fd5b9060005260206000209060060201600091509050806000015490806001018054610f5490611e07565b80601f0160208091040260200160405190810160405280929190818152602001828054610f8090611e07565b8015610fcd5780601f10610fa257610100808354040283529160200191610fcd565b820191906000526020600020905b815481529060010190602001808311610fb057829003601f168201915b505050505090806002018054610fe290611e07565b80601f016020809104026020016040519081016040528092919081815260200182805461100e90611e07565b801561105b5780601f106110305761010080835404028352916020019161105b565b820191906000526020600020905b81548152906001019060200180831161103e57829003601f168201915b50505050509080600301805461107090611e07565b80601f016020809104026020016040519081016040528092919081815260200182805461109c90611e07565b80156110e95780601f106110be576101008083540402835291602001916110e9565b820191906000526020600020905b8154815290600101906020018083116110cc57829003601f168201915b5050505050908060040154908060050160009054906101000a900473ffffffffffffffffffffffffffffffffffffffff16905086565b60046020528060005260406000206000915090505481565b60025481565b60008054906101000a900473ffffffffffffffffffffffffffffffffffffffff1673ffffffffffffffffffffffffffffffffffffffff163373ffffffffffffffffffffffffffffffffffffffff16146111cb576040517f08c379a00000000000000000000000000000000000000000000000000000000081526004016111c290611beb565b60405180910390fd5b600073ffffffffffffffffffffffffffffffffffffffff168173ffffffffffffffffffffffffffffffffffffffff16141561123b576040517f08c379a000000000000000000000000000000000000000000000000000000000815260040161123290611f79565b60405180910390fd5b806000806101000a81548173ffffffffffffffffffffffffffffffffffffffff021916908373ffffffffffffffffffffffffffffffffffffffff16021790555050565b6000811161128b57600080fd5b60008273ffffffffffffffffffffffffffffffffffffffff16826040516112b190611fca565b60006040518083038185875af1925050503d80600081146112ee576040519150601f19603f3d011682016040523d82523d6000602084013e6112f3565b606091505b5050905080611337576040517f08c379a000000000000000000000000000000000000000000000000000000000815260040161132e9061202b565b60405180910390fd5b505050565b82805461134890611e07565b90600052602060002090601f01602090048101928261136a57600085556113b1565b82601f1061138357805160ff19168380011785556113b1565b828001600101855582156113b1579182015b828111156113b0578251825591602001919060010190611395565b5b5090506113be91906113c2565b5090565b5b808211156113db5760008160009055506001016113c3565b5090565b6000604051905090565b600080fd5b600080fd5b600080fd5b600080fd5b6000601f19601f8301169050919050565b7f4e487b7100000000000000000000000000000000000000000000000000000000600052604160045260246000fd5b611446826113fd565b810181811067ffffffffffffffff821117156114655761146461140e565b5b80604052505050565b60006114786113df565b9050611484828261143d565b919050565b600067ffffffffffffffff8211156114a4576114a361140e565b5b6114ad826113fd565b9050602081019050919050565b82818337600083830152505050565b60006114dc6114d784611489565b61146e565b9050828152602081018484840111156114f8576114f76113f8565b5b6115038482856114ba565b509392505050565b600082601f8301126115205761151f6113f3565b5b81356115308482602086016114c9565b91505092915050565b600073ffffffffffffffffffffffffffffffffffffffff82169050919050565b600061156482611539565b9050919050565b61157481611559565b811461157f57600080fd5b50565b6000813590506115918161156b565b92915050565b6000819050919050565b6115aa81611597565b81146115b557600080fd5b50565b6000813590506115c7816115a1565b92915050565b600080600080600060a086880312156115e9576115e86113e9565b5b600086013567ffffffffffffffff811115611607576116066113ee565b5b6116138882890161150b565b955050602086013567ffffffffffffffff811115611634576116336113ee565b5b6116408882890161150b565b945050604086013567ffffffffffffffff811115611661576116606113ee565b5b61166d8882890161150b565b935050606061167e88828901611582565b925050608061168f888289016115b8565b9150509295509295909350565b600081519050919050565b600082825260208201905092915050565b6000819050602082019050919050565b6116d181611597565b82525050565b600081519050919050565b600082825260208201905092915050565b60005b838110156117115780820151818401526020810190506116f6565b83811115611720576000848401525b50505050565b6000611731826116d7565b61173b81856116e2565b935061174b8185602086016116f3565b611754816113fd565b840191505092915050565b61176881611559565b82525050565b600060c08301600083015161178660008601826116c8565b506020830151848203602086015261179e8282611726565b915050604083015184820360408601526117b88282611726565b915050606083015184820360608601526117d28282611726565b91505060808301516117e760808601826116c8565b5060a08301516117fa60a086018261175f565b508091505092915050565b6000611811838361176e565b905092915050565b6000602082019050919050565b60006118318261169c565b61183b81856116a7565b93508360208202850161184d856116b8565b8060005b85811015611889578484038952815161186a8582611805565b945061187583611819565b925060208a01995050600181019050611851565b50829750879550505050505092915050565b600060208201905081810360008301526118b58184611826565b905092915050565b60006118c882611539565b9050919050565b6118d8816118bd565b82525050565b60006020820190506118f360008301846118cf565b92915050565b60008060008060808587031215611913576119126113e9565b5b600085013567ffffffffffffffff811115611931576119306113ee565b5b61193d8782880161150b565b945050602085013567ffffffffffffffff81111561195e5761195d6113ee565b5b61196a8782880161150b565b935050604085013567ffffffffffffffff81111561198b5761198a6113ee565b5b6119978782880161150b565b92505060606119a887828801611582565b91505092959194509250565b6000602082840312156119ca576119c96113e9565b5b60006119d8848285016115b8565b91505092915050565b6119ea81611597565b82525050565b6000602082019050611a0560008301846119e1565b92915050565b600082825260208201905092915050565b6000611a27826116d7565b611a318185611a0b565b9350611a418185602086016116f3565b611a4a816113fd565b840191505092915050565b611a5e81611559565b82525050565b600060c082019050611a7960008301896119e1565b8181036020830152611a8b8188611a1c565b90508181036040830152611a9f8187611a1c565b90508181036060830152611ab38186611a1c565b9050611ac260808301856119e1565b611acf60a0830184611a55565b979650505050505050565b611ae3816118bd565b8114611aee57600080fd5b50565b600081359050611b0081611ada565b92915050565b600060208284031215611b1c57611b1b6113e9565b5b6000611b2a84828501611af1565b91505092915050565b7f49643a206e6f7420666f756e6400000000000000000000000000000000000000600082015250565b6000611b69600d83611a0b565b9150611b7482611b33565b602082019050919050565b60006020820190508181036000830152611b9881611b5c565b9050919050565b7f4f6e6c796f776e65723a2075736572206e6f74206f776e657200000000000000600082015250565b6000611bd5601983611a0b565b9150611be082611b9f565b602082019050919050565b60006020820190508181036000830152611c0481611bc8565b9050919050565b7f6e616d65206973206e756c6c0000000000000000000000000000000000000000600082015250565b6000611c41600c83611a0b565b9150611c4c82611c0b565b602082019050919050565b60006020820190508181036000830152611c7081611c34565b9050919050565b7f6465736372697074696f6e206973206e756c6c00000000000000000000000000600082015250565b6000611cad601383611a0b565b9150611cb882611c77565b602082019050919050565b60006020820190508181036000830152611cdc81611ca0565b9050919050565b7f496d6167652055524c206973206e756c6c000000000000000000000000000000600082015250565b6000611d19601183611a0b565b9150611d2482611ce3565b602082019050919050565b60006020820190508181036000830152611d4881611d0c565b9050919050565b7f4e487b7100000000000000000000000000000000000000000000000000000000600052603260045260246000fd5b60006080820190508181036000830152611d988187611a1c565b90508181036020830152611dac8186611a1c565b90508181036040830152611dc08185611a1c565b9050611dcf6060830184611a55565b95945050505050565b7f4e487b7100000000000000000000000000000000000000000000000000000000600052602260045260246000fd5b60006002820490506001821680611e1f57607f821691505b60208210811415611e3357611e32611dd8565b5b50919050565b7f4e487b7100000000000000000000000000000000000000000000000000000000600052601160045260246000fd5b6000611e7382611597565b91507fffffffffffffffffffffffffffffffffffffffffffffffffffffffffffffffff821415611ea657611ea5611e39565b5b600182019050919050565b6000611ebc82611597565b9150611ec783611597565b9250827fffffffffffffffffffffffffffffffffffffffffffffffffffffffffffffffff03821115611efc57611efb611e39565b5b828201905092915050565b7f4f776e61626c653a206e65774f776e657220697320746865207a65726f20616460008201527f6472657373000000000000000000000000000000000000000000000000000000602082015250565b6000611f63602583611a0b565b9150611f6e82611f07565b604082019050919050565b60006020820190508181036000830152611f9281611f56565b9050919050565b600081905092915050565b50565b6000611fb4600083611f99565b9150611fbf82611fa4565b600082019050919050565b6000611fd582611fa7565b9150819050919050565b7f736f6d657468696e672077656e742077726f6e67000000000000000000000000600082015250565b6000612015601483611a0b565b915061202082611fdf565b602082019050919050565b6000602082019050818103600083015261204481612008565b905091905056fea2646970667358221220e914d6f22b685af623fcdad80e053c37e29f669ef5eba39ed660f48525a69da164736f6c63430008090033",
  "linkReferences": {},
  "deployedLinkReferences": {}
}